{
  "contractName": "MyProjectOffice",
  "abi": [
    {
      "constant": true,
      "inputs": [],
      "name": "buttons",
      "outputs": [
        {
          "internalType": "int256",
          "name": "",
          "type": "int256"
        }
      ],
      "payable": false,
      "stateMutability": "view",
      "type": "function"
    },
    {
      "constant": true,
      "inputs": [],
      "name": "controllers",
      "outputs": [
        {
          "internalType": "int256",
          "name": "",
          "type": "int256"
        }
      ],
      "payable": false,
      "stateMutability": "view",
      "type": "function"
    },
    {
      "constant": true,
      "inputs": [],
      "name": "display",
      "outputs": [
        {
          "internalType": "int256",
          "name": "",
          "type": "int256"
        }
      ],
      "payable": false,
      "stateMutability": "view",
      "type": "function"
    },
    {
      "constant": true,
      "inputs": [],
      "name": "doors",
      "outputs": [
        {
          "internalType": "int256",
          "name": "",
          "type": "int256"
        }
      ],
      "payable": false,
      "stateMutability": "view",
      "type": "function"
    },
    {
      "constant": true,
      "inputs": [],
      "name": "shafts",
      "outputs": [
        {
          "internalType": "int256",
          "name": "",
          "type": "int256"
        }
      ],
      "payable": false,
      "stateMutability": "view",
      "type": "function"
    },
    {
      "constant": false,
      "inputs": [
        {
          "internalType": "int256",
          "name": "x",
          "type": "int256"
        }
      ],
      "name": "setControllers",
      "outputs": [],
      "payable": false,
      "stateMutability": "nonpayable",
      "type": "function"
    },
    {
      "constant": false,
      "inputs": [
        {
          "internalType": "int256",
          "name": "x",
          "type": "int256"
        }
      ],
      "name": "setShafts",
      "outputs": [],
      "payable": false,
      "stateMutability": "nonpayable",
      "type": "function"
    },
    {
      "constant": false,
      "inputs": [
        {
          "internalType": "int256",
          "name": "x",
          "type": "int256"
        }
      ],
      "name": "setDoors",
      "outputs": [],
      "payable": false,
      "stateMutability": "nonpayable",
      "type": "function"
    },
    {
      "constant": false,
      "inputs": [
        {
          "internalType": "int256",
          "name": "x",
          "type": "int256"
        }
      ],
      "name": "setButtons",
      "outputs": [],
      "payable": false,
      "stateMutability": "nonpayable",
      "type": "function"
    },
    {
      "constant": false,
      "inputs": [
        {
          "internalType": "int256",
          "name": "x",
          "type": "int256"
        }
      ],
      "name": "setDisplay",
      "outputs": [],
      "payable": false,
      "stateMutability": "nonpayable",
      "type": "function"
    }
  ],
  "bytecode": "0x608060405260008055600060015560006002556000600355600060045534801561002857600080fd5b506102a4806100386000396000f3fe608060405234801561001057600080fd5b506004361061009e5760003560e01c80637cc0c3a7116100665780637cc0c3a7146101595780639800487514610177578063bec889e9146101a5578063f55fc099146101c3578063f8e622e5146101f15761009e565b80630191a612146100a357806304a25efe146100d15780630c1b7c1e146100ff578063359919111461011d578063752f00a61461013b575b600080fd5b6100cf600480360360208110156100b957600080fd5b810190808035906020019092919050505061021f565b005b6100fd600480360360208110156100e757600080fd5b8101908080359060200190929190505050610229565b005b610107610233565b6040518082815260200191505060405180910390f35b610125610239565b6040518082815260200191505060405180910390f35b61014361023f565b6040518082815260200191505060405180910390f35b610161610245565b6040518082815260200191505060405180910390f35b6101a36004803603602081101561018d57600080fd5b810190808035906020019092919050505061024b565b005b6101ad610255565b6040518082815260200191505060405180910390f35b6101ef600480360360208110156101d957600080fd5b810190808035906020019092919050505061025b565b005b61021d6004803603602081101561020757600080fd5b8101908080359060200190929190505050610265565b005b8060008190555050565b8060048190555050565b60045481565b60025481565b60035481565b60005481565b8060038190555050565b60015481565b8060018190555050565b806002819055505056fea265627a7a72315820abb4aff914e4c623c19aaa588e2f4bdabd9ce85d3ad8a1337f37c083f079247e64736f6c63430005100032",
  "source": "pragma solidity >=0.5.0;\n\ncontract MyProjectOffice {\n\n\n  int public controllers =0;\n  int public shafts =0;\n  int public doors =0;\n  int public buttons =0;\n  int public display =0;\n\n  function setControllers(int x) public {\n    controllers = x;\n  }\n\n  function setShafts(int x) public {\n    shafts = x;\n  }\n\n  function setDoors(int x) public {\n    doors = x;\n  }\n\n  function setButtons(int x) public {\n    buttons = x;\n  }\n\n  function setDisplay(int x) public {\n    display = x;\n  }\n}",
  "sourcePath": "C:/Users/Diana/Documents/projetos/week 12/drizzle-react-tutorial/contracts/MyProjectOffice.sol",
  "compiler": {
    "name": "solc",
    "version": "0.5.16+commit.9c3226ce.Emscripten.clang"
  },
  "schemaVersion": "3.3.4",
  "updatedAt": "2021-04-15T02:41:49.024Z",
  "devdoc": {
    "methods": {}
  },
  "userdoc": {
    "methods": {}
  }
}