{
  "contractName": "MyStringStore",
  "abi": [
    {
      "constant": true,
      "inputs": [],
      "name": "batteries",
      "outputs": [
        {
          "internalType": "int256",
          "name": "",
          "type": "int256"
        }
      ],
      "payable": false,
      "stateMutability": "view",
      "type": "function"
    },
    {
      "constant": true,
      "inputs": [],
      "name": "columns",
      "outputs": [
        {
          "internalType": "int256",
          "name": "",
          "type": "int256"
        }
      ],
      "payable": false,
      "stateMutability": "view",
      "type": "function"
    },
    {
      "constant": true,
      "inputs": [],
      "name": "elevators",
      "outputs": [
        {
          "internalType": "int256",
          "name": "",
          "type": "int256"
        }
      ],
      "payable": false,
      "stateMutability": "view",
      "type": "function"
    },
    {
      "constant": true,
      "inputs": [],
      "name": "floors",
      "outputs": [
        {
          "internalType": "int256",
          "name": "",
          "type": "int256"
        }
      ],
      "payable": false,
      "stateMutability": "view",
      "type": "function"
    },
    {
      "constant": false,
      "inputs": [
        {
          "internalType": "int256",
          "name": "x",
          "type": "int256"
        }
      ],
      "name": "setBatteries",
      "outputs": [],
      "payable": false,
      "stateMutability": "nonpayable",
      "type": "function"
    },
    {
      "constant": false,
      "inputs": [
        {
          "internalType": "int256",
          "name": "x",
          "type": "int256"
        }
      ],
      "name": "setColumns",
      "outputs": [],
      "payable": false,
      "stateMutability": "nonpayable",
      "type": "function"
    },
    {
      "constant": false,
      "inputs": [
        {
          "internalType": "int256",
          "name": "x",
          "type": "int256"
        }
      ],
      "name": "setElevators",
      "outputs": [],
      "payable": false,
      "stateMutability": "nonpayable",
      "type": "function"
    },
    {
      "constant": false,
      "inputs": [
        {
          "internalType": "int256",
          "name": "x",
          "type": "int256"
        }
      ],
      "name": "setFloors",
      "outputs": [],
      "payable": false,
      "stateMutability": "nonpayable",
      "type": "function"
    }
  ],
  "bytecode": "0x6080604052601e60005560196001556000600255600060035534801561002457600080fd5b50610232806100346000396000f3fe608060405234801561001057600080fd5b50600436106100885760003560e01c8063a686cf8f1161005b578063a686cf8f14610125578063abd2adbb14610153578063d4a97eb514610171578063f41fed0e1461019f57610088565b8063223d9a841461008d5780634958bdbd146100bb5780634a10781f146100d957806351e9710314610107575b600080fd5b6100b9600480360360208110156100a357600080fd5b81019080803590602001909291905050506101bd565b005b6100c36101c7565b6040518082815260200191505060405180910390f35b610105600480360360208110156100ef57600080fd5b81019080803590602001909291905050506101cd565b005b61010f6101d7565b6040518082815260200191505060405180910390f35b6101516004803603602081101561013b57600080fd5b81019080803590602001909291905050506101dd565b005b61015b6101e7565b6040518082815260200191505060405180910390f35b61019d6004803603602081101561018757600080fd5b81019080803590602001909291905050506101ed565b005b6101a76101f7565b6040518082815260200191505060405180910390f35b8060038190555050565b60025481565b8060018190555050565b60005481565b8060008190555050565b60015481565b8060028190555050565b6003548156fea265627a7a7231582078036e88a559569f1175952868c3605d505f5b624f5ba3c176f50080668f026d64736f6c63430005100032",
  "source": "pragma solidity >=0.5.0;\r\n\r\ncontract MyStringStore {\r\n  int public batteries = 30;\r\n  int public columns = 25;\r\n  int public elevators = 0;\r\n  int public floors = 0;\r\n  \r\n  function setBatteries(int x) public {\r\n    batteries = x;\r\n  }\r\n\r\n  function setColumns(int x) public {\r\n    columns = x;\r\n  }\r\n\r\n  function setElevators(int x) public {\r\n    elevators = x;\r\n  }\r\n\r\n  function setFloors(int x) public {\r\n    floors = x;\r\n  }\r\n}",
  "sourcePath": "C:/Users/Diana/drizzle-react-tutorial/contracts/MyStringStore.sol",
  "compiler": {
    "name": "solc",
    "version": "0.5.16+commit.9c3226ce.Emscripten.clang"
  },
  "schemaVersion": "3.3.4",
  "updatedAt": "2021-04-14T17:54:49.906Z",
  "networkType": "ethereum",
  "devdoc": {
    "methods": {}
  },
  "userdoc": {
    "methods": {}
  }
}