{
  "contractName": "MyStringStore",
  "abi": [
    {
      "constant": true,
      "inputs": [],
      "name": "aluminumBars",
      "outputs": [
        {
          "internalType": "int256",
          "name": "",
          "type": "int256"
        }
      ],
      "payable": false,
      "stateMutability": "view",
      "type": "function"
    },
    {
      "constant": true,
      "inputs": [],
      "name": "aluminumSheets",
      "outputs": [
        {
          "internalType": "int256",
          "name": "",
          "type": "int256"
        }
      ],
      "payable": false,
      "stateMutability": "view",
      "type": "function"
    },
    {
      "constant": true,
      "inputs": [],
      "name": "batteries",
      "outputs": [
        {
          "internalType": "int256",
          "name": "",
          "type": "int256"
        }
      ],
      "payable": false,
      "stateMutability": "view",
      "type": "function"
    },
    {
      "constant": true,
      "inputs": [],
      "name": "batteryoperating",
      "outputs": [
        {
          "internalType": "int256",
          "name": "",
          "type": "int256"
        }
      ],
      "payable": false,
      "stateMutability": "view",
      "type": "function"
    },
    {
      "constant": true,
      "inputs": [],
      "name": "braketest",
      "outputs": [
        {
          "internalType": "int256",
          "name": "",
          "type": "int256"
        }
      ],
      "payable": false,
      "stateMutability": "view",
      "type": "function"
    },
    {
      "constant": true,
      "inputs": [],
      "name": "buttons",
      "outputs": [
        {
          "internalType": "int256",
          "name": "",
          "type": "int256"
        }
      ],
      "payable": false,
      "stateMutability": "view",
      "type": "function"
    },
    {
      "constant": true,
      "inputs": [],
      "name": "cableTest",
      "outputs": [
        {
          "internalType": "int256",
          "name": "",
          "type": "int256"
        }
      ],
      "payable": false,
      "stateMutability": "view",
      "type": "function"
    },
    {
      "constant": true,
      "inputs": [],
      "name": "certificateofconformity",
      "outputs": [
        {
          "internalType": "int256",
          "name": "",
          "type": "int256"
        }
      ],
      "payable": false,
      "stateMutability": "view",
      "type": "function"
    },
    {
      "constant": true,
      "inputs": [],
      "name": "columns",
      "outputs": [
        {
          "internalType": "int256",
          "name": "",
          "type": "int256"
        }
      ],
      "payable": false,
      "stateMutability": "view",
      "type": "function"
    },
    {
      "constant": true,
      "inputs": [],
      "name": "controllers",
      "outputs": [
        {
          "internalType": "int256",
          "name": "",
          "type": "int256"
        }
      ],
      "payable": false,
      "stateMutability": "view",
      "type": "function"
    },
    {
      "constant": true,
      "inputs": [],
      "name": "display",
      "outputs": [
        {
          "internalType": "int256",
          "name": "",
          "type": "int256"
        }
      ],
      "payable": false,
      "stateMutability": "view",
      "type": "function"
    },
    {
      "constant": true,
      "inputs": [],
      "name": "displayPanel",
      "outputs": [
        {
          "internalType": "int256",
          "name": "",
          "type": "int256"
        }
      ],
      "payable": false,
      "stateMutability": "view",
      "type": "function"
    },
    {
      "constant": true,
      "inputs": [],
      "name": "doorTest",
      "outputs": [
        {
          "internalType": "int256",
          "name": "",
          "type": "int256"
        }
      ],
      "payable": false,
      "stateMutability": "view",
      "type": "function"
    },
    {
      "constant": true,
      "inputs": [],
      "name": "doors",
      "outputs": [
        {
          "internalType": "int256",
          "name": "",
          "type": "int256"
        }
      ],
      "payable": false,
      "stateMutability": "view",
      "type": "function"
    },
    {
      "constant": true,
      "inputs": [],
      "name": "elevators",
      "outputs": [
        {
          "internalType": "int256",
          "name": "",
          "type": "int256"
        }
      ],
      "payable": false,
      "stateMutability": "view",
      "type": "function"
    },
    {
      "constant": true,
      "inputs": [],
      "name": "floors",
      "outputs": [
        {
          "internalType": "int256",
          "name": "",
          "type": "int256"
        }
      ],
      "payable": false,
      "stateMutability": "view",
      "type": "function"
    },
    {
      "constant": true,
      "inputs": [],
      "name": "lightinLed",
      "outputs": [
        {
          "internalType": "int256",
          "name": "",
          "type": "int256"
        }
      ],
      "payable": false,
      "stateMutability": "view",
      "type": "function"
    },
    {
      "constant": true,
      "inputs": [],
      "name": "manufacturingButtons",
      "outputs": [
        {
          "internalType": "int256",
          "name": "",
          "type": "int256"
        }
      ],
      "payable": false,
      "stateMutability": "view",
      "type": "function"
    },
    {
      "constant": true,
      "inputs": [],
      "name": "rubberBands",
      "outputs": [
        {
          "internalType": "int256",
          "name": "",
          "type": "int256"
        }
      ],
      "payable": false,
      "stateMutability": "view",
      "type": "function"
    },
    {
      "constant": true,
      "inputs": [],
      "name": "rubberBumpers",
      "outputs": [
        {
          "internalType": "int256",
          "name": "",
          "type": "int256"
        }
      ],
      "payable": false,
      "stateMutability": "view",
      "type": "function"
    },
    {
      "constant": true,
      "inputs": [],
      "name": "shafts",
      "outputs": [
        {
          "internalType": "int256",
          "name": "",
          "type": "int256"
        }
      ],
      "payable": false,
      "stateMutability": "view",
      "type": "function"
    },
    {
      "constant": true,
      "inputs": [],
      "name": "springs",
      "outputs": [
        {
          "internalType": "int256",
          "name": "",
          "type": "int256"
        }
      ],
      "payable": false,
      "stateMutability": "view",
      "type": "function"
    },
    {
      "constant": true,
      "inputs": [],
      "name": "stainlessSteelSheets",
      "outputs": [
        {
          "internalType": "int256",
          "name": "",
          "type": "int256"
        }
      ],
      "payable": false,
      "stateMutability": "view",
      "type": "function"
    },
    {
      "constant": false,
      "inputs": [
        {
          "internalType": "int256",
          "name": "x",
          "type": "int256"
        }
      ],
      "name": "setBatteries",
      "outputs": [],
      "payable": false,
      "stateMutability": "nonpayable",
      "type": "function"
    },
    {
      "constant": false,
      "inputs": [
        {
          "internalType": "int256",
          "name": "x",
          "type": "int256"
        }
      ],
      "name": "setColumns",
      "outputs": [],
      "payable": false,
      "stateMutability": "nonpayable",
      "type": "function"
    },
    {
      "constant": false,
      "inputs": [
        {
          "internalType": "int256",
          "name": "x",
          "type": "int256"
        }
      ],
      "name": "setElevators",
      "outputs": [],
      "payable": false,
      "stateMutability": "nonpayable",
      "type": "function"
    },
    {
      "constant": false,
      "inputs": [
        {
          "internalType": "int256",
          "name": "x",
          "type": "int256"
        }
      ],
      "name": "setFloors",
      "outputs": [],
      "payable": false,
      "stateMutability": "nonpayable",
      "type": "function"
    },
    {
      "constant": false,
      "inputs": [
        {
          "internalType": "int256",
          "name": "x",
          "type": "int256"
        }
      ],
      "name": "setControllers",
      "outputs": [],
      "payable": false,
      "stateMutability": "nonpayable",
      "type": "function"
    },
    {
      "constant": false,
      "inputs": [
        {
          "internalType": "int256",
          "name": "x",
          "type": "int256"
        }
      ],
      "name": "setShafts",
      "outputs": [],
      "payable": false,
      "stateMutability": "nonpayable",
      "type": "function"
    },
    {
      "constant": false,
      "inputs": [
        {
          "internalType": "int256",
          "name": "x",
          "type": "int256"
        }
      ],
      "name": "setDoors",
      "outputs": [],
      "payable": false,
      "stateMutability": "nonpayable",
      "type": "function"
    },
    {
      "constant": false,
      "inputs": [
        {
          "internalType": "int256",
          "name": "x",
          "type": "int256"
        }
      ],
      "name": "setButtons",
      "outputs": [],
      "payable": false,
      "stateMutability": "nonpayable",
      "type": "function"
    },
    {
      "constant": false,
      "inputs": [
        {
          "internalType": "int256",
          "name": "x",
          "type": "int256"
        }
      ],
      "name": "setDisplay",
      "outputs": [],
      "payable": false,
      "stateMutability": "nonpayable",
      "type": "function"
    },
    {
      "constant": false,
      "inputs": [
        {
          "internalType": "int256",
          "name": "x",
          "type": "int256"
        }
      ],
      "name": "setAluminumBars",
      "outputs": [],
      "payable": false,
      "stateMutability": "nonpayable",
      "type": "function"
    },
    {
      "constant": false,
      "inputs": [
        {
          "internalType": "int256",
          "name": "x",
          "type": "int256"
        }
      ],
      "name": "setAluminumSheets",
      "outputs": [],
      "payable": false,
      "stateMutability": "nonpayable",
      "type": "function"
    },
    {
      "constant": false,
      "inputs": [
        {
          "internalType": "int256",
          "name": "x",
          "type": "int256"
        }
      ],
      "name": "setStainlessSteelSheets",
      "outputs": [],
      "payable": false,
      "stateMutability": "nonpayable",
      "type": "function"
    },
    {
      "constant": false,
      "inputs": [
        {
          "internalType": "int256",
          "name": "x",
          "type": "int256"
        }
      ],
      "name": "Springs",
      "outputs": [],
      "payable": false,
      "stateMutability": "nonpayable",
      "type": "function"
    },
    {
      "constant": false,
      "inputs": [
        {
          "internalType": "int256",
          "name": "x",
          "type": "int256"
        }
      ],
      "name": "setRubberBands",
      "outputs": [],
      "payable": false,
      "stateMutability": "nonpayable",
      "type": "function"
    },
    {
      "constant": false,
      "inputs": [
        {
          "internalType": "int256",
          "name": "x",
          "type": "int256"
        }
      ],
      "name": "setRubberBumpers",
      "outputs": [],
      "payable": false,
      "stateMutability": "nonpayable",
      "type": "function"
    },
    {
      "constant": false,
      "inputs": [
        {
          "internalType": "int256",
          "name": "x",
          "type": "int256"
        }
      ],
      "name": "setLightinLed",
      "outputs": [],
      "payable": false,
      "stateMutability": "nonpayable",
      "type": "function"
    },
    {
      "constant": false,
      "inputs": [
        {
          "internalType": "int256",
          "name": "x",
          "type": "int256"
        }
      ],
      "name": "setDisplayPanel",
      "outputs": [],
      "payable": false,
      "stateMutability": "nonpayable",
      "type": "function"
    },
    {
      "constant": false,
      "inputs": [
        {
          "internalType": "int256",
          "name": "x",
          "type": "int256"
        }
      ],
      "name": "setManufacturingButtons",
      "outputs": [],
      "payable": false,
      "stateMutability": "nonpayable",
      "type": "function"
    },
    {
      "constant": false,
      "inputs": [
        {
          "internalType": "int256",
          "name": "x",
          "type": "int256"
        }
      ],
      "name": "setDoorTest",
      "outputs": [],
      "payable": false,
      "stateMutability": "nonpayable",
      "type": "function"
    },
    {
      "constant": false,
      "inputs": [
        {
          "internalType": "int256",
          "name": "x",
          "type": "int256"
        }
      ],
      "name": "setCableTest",
      "outputs": [],
      "payable": false,
      "stateMutability": "nonpayable",
      "type": "function"
    },
    {
      "constant": false,
      "inputs": [
        {
          "internalType": "int256",
          "name": "x",
          "type": "int256"
        }
      ],
      "name": "setBraketest",
      "outputs": [],
      "payable": false,
      "stateMutability": "nonpayable",
      "type": "function"
    },
    {
      "constant": false,
      "inputs": [
        {
          "internalType": "int256",
          "name": "x",
          "type": "int256"
        }
      ],
      "name": "setBatteryoperating",
      "outputs": [],
      "payable": false,
      "stateMutability": "nonpayable",
      "type": "function"
    },
    {
      "constant": false,
      "inputs": [
        {
          "internalType": "int256",
          "name": "x",
          "type": "int256"
        }
      ],
      "name": "setcertificateofconformity",
      "outputs": [],
      "payable": false,
      "stateMutability": "nonpayable",
      "type": "function"
    }
  ],
  "bytecode": "0x6080604052601e6000556019600155600060025560006003556000600455600060055560006006556000600755600060085560006009556000600a556000600b556000600c556000600d556000600e556000600f55600060105560006011556000601255600060135560006014556000601555600060165534801561008357600080fd5b50610b08806100936000396000f3fe608060405234801561001057600080fd5b506004361061028a5760003560e01c80635915b5d91161015c578063a686cf8f116100ce578063da6cd09611610087578063da6cd0961461087f578063e1e619481461089d578063ed727937146108cb578063f41fed0e146108e9578063f55fc09914610907578063f8e622e5146109355761028a565b8063a686cf8f1461079b578063abd2adbb146107c9578063bec889e9146107e7578063cfdd8bc114610805578063d4a97eb514610833578063d8feedf1146108615761028a565b80637cc0c3a7116101205780637cc0c3a7146106a75780638480da6e146106c557806392670bcf146106f357806398004875146107215780639e051e4f1461074f578063a626df851461076d5761028a565b80635915b5d9146106015780636124bcf41461061f57806366dea4f71461063d57806373b0ca8b1461065b578063752f00a6146106895761028a565b80632c51a092116102005780634958bdbd116101b95780634958bdbd1461051d5780634a10781f1461053b5780634b5efa9a1461056957806351e971031461059757806354b6689d146105b5578063581f91ed146105d35761028a565b80632c51a092146104495780632dbbdf241461046757806334e731301461048557806335991911146104b3578063459946bb146104d157806346b368d1146104ef5761028a565b806316d3ed211161025257806316d3ed21146103655780631a0db2ca146103935780631a5f89ca146103c15780631ff94038146103df578063223d9a84146103fd5780632c3ab8f51461042b5761028a565b80630191a6121461028f57806304a25efe146102bd57806305855398146102eb57806308d76dd2146103195780630c1b7c1e14610347575b600080fd5b6102bb600480360360208110156102a557600080fd5b8101908080359060200190929190505050610963565b005b6102e9600480360360208110156102d357600080fd5b810190808035906020019092919050505061096d565b005b6103176004803603602081101561030157600080fd5b8101908080359060200190929190505050610977565b005b6103456004803603602081101561032f57600080fd5b8101908080359060200190929190505050610981565b005b61034f61098b565b6040518082815260200191505060405180910390f35b6103916004803603602081101561037b57600080fd5b8101908080359060200190929190505050610991565b005b6103bf600480360360208110156103a957600080fd5b810190808035906020019092919050505061099b565b005b6103c96109a5565b6040518082815260200191505060405180910390f35b6103e76109ab565b6040518082815260200191505060405180910390f35b6104296004803603602081101561041357600080fd5b81019080803590602001909291905050506109b1565b005b6104336109bb565b6040518082815260200191505060405180910390f35b6104516109c1565b6040518082815260200191505060405180910390f35b61046f6109c7565b6040518082815260200191505060405180910390f35b6104b16004803603602081101561049b57600080fd5b81019080803590602001909291905050506109cd565b005b6104bb6109d7565b6040518082815260200191505060405180910390f35b6104d96109dd565b6040518082815260200191505060405180910390f35b61051b6004803603602081101561050557600080fd5b81019080803590602001909291905050506109e3565b005b6105256109ed565b6040518082815260200191505060405180910390f35b6105676004803603602081101561055157600080fd5b81019080803590602001909291905050506109f3565b005b6105956004803603602081101561057f57600080fd5b81019080803590602001909291905050506109fd565b005b61059f610a07565b6040518082815260200191505060405180910390f35b6105bd610a0d565b6040518082815260200191505060405180910390f35b6105ff600480360360208110156105e957600080fd5b8101908080359060200190929190505050610a13565b005b610609610a1d565b6040518082815260200191505060405180910390f35b610627610a23565b6040518082815260200191505060405180910390f35b610645610a29565b6040518082815260200191505060405180910390f35b6106876004803603602081101561067157600080fd5b8101908080359060200190929190505050610a2f565b005b610691610a39565b6040518082815260200191505060405180910390f35b6106af610a3f565b6040518082815260200191505060405180910390f35b6106f1600480360360208110156106db57600080fd5b8101908080359060200190929190505050610a45565b005b61071f6004803603602081101561070957600080fd5b8101908080359060200190929190505050610a4f565b005b61074d6004803603602081101561073757600080fd5b8101908080359060200190929190505050610a59565b005b610757610a63565b6040518082815260200191505060405180910390f35b6107996004803603602081101561078357600080fd5b8101908080359060200190929190505050610a69565b005b6107c7600480360360208110156107b157600080fd5b8101908080359060200190929190505050610a73565b005b6107d1610a7d565b6040518082815260200191505060405180910390f35b6107ef610a83565b6040518082815260200191505060405180910390f35b6108316004803603602081101561081b57600080fd5b8101908080359060200190929190505050610a89565b005b61085f6004803603602081101561084957600080fd5b8101908080359060200190929190505050610a93565b005b610869610a9d565b6040518082815260200191505060405180910390f35b610887610aa3565b6040518082815260200191505060405180910390f35b6108c9600480360360208110156108b357600080fd5b8101908080359060200190929190505050610aa9565b005b6108d3610ab3565b6040518082815260200191505060405180910390f35b6108f1610ab9565b6040518082815260200191505060405180910390f35b6109336004803603602081101561091d57600080fd5b8101908080359060200190929190505050610abf565b005b6109616004803603602081101561094b57600080fd5b8101908080359060200190929190505050610ac9565b005b8060048190555050565b8060088190555050565b80600a8190555050565b8060098190555050565b60085481565b80600f8190555050565b8060108190555050565b60095481565b60145481565b8060038190555050565b60125481565b60105481565b60115481565b8060138190555050565b60065481565b60165481565b80600c8190555050565b60025481565b8060018190555050565b8060168190555050565b60005481565b600f5481565b8060128190555050565b600b5481565b60155481565b600e5481565b80600d8190555050565b60075481565b60045481565b8060118190555050565b80600e8190555050565b8060078190555050565b600c5481565b8060148190555050565b8060008190555050565b60015481565b60055481565b80600b8190555050565b8060028190555050565b60135481565b600a5481565b8060158190555050565b600d5481565b60035481565b8060058190555050565b806006819055505056fea265627a7a72315820e1d48b303c995a7808cbaf272afbb6f774018b17ee3650b84ae50dd4f3d977aa64736f6c63430005100032",
  "source": "pragma solidity >=0.5.0;\r\n\r\ncontract MyStringStore {\r\n  // Projet Office \r\n  int public batteries = 30;\r\n  int public columns = 25;\r\n  int public elevators = 0;\r\n  int public floors = 0;\r\n\r\n  // Projet Office show\r\n  int public controllers =0;\r\n  int public shafts =0;\r\n  int public doors =0;\r\n  int public buttons =0;\r\n  int public display =0;\r\n\r\n  // Solution Manufacturing\r\n  int public aluminumBars = 0;\r\n  int public aluminumSheets = 0;\r\n  int public stainlessSteelSheets = 0;\r\n  int public springs = 0;\r\n  int public rubberBands =0;\r\n  int public rubberBumpers =0;\r\n  int public lightinLed =0;\r\n  int public displayPanel =0;\r\n  int public manufacturingButtons =0;\r\n\r\n  // Quality, Security and Homologation\r\n  int public doorTest =0;\r\n  int public cableTest =0;\r\n  int public braketest  =0;\r\n  int public batteryoperating  =0;\r\n  int public certificateofconformity =0;\r\n\r\n  \r\n  // Projet Office \r\n  function setBatteries(int x) public {\r\n    batteries = x;\r\n  }\r\n\r\n  function setColumns(int x) public {\r\n    columns = x;\r\n  }\r\n\r\n  function setElevators(int x) public {\r\n    elevators = x;\r\n  }\r\n\r\n  function setFloors(int x) public {\r\n    floors = x;\r\n  }\r\n\r\n  // Projet Office show\r\n  function setControllers(int x) public {\r\n    controllers = x;\r\n  }\r\n\r\n  function setShafts(int x) public {\r\n    shafts = x;\r\n  }\r\n\r\n  function setDoors(int x) public {\r\n    doors = x;\r\n  }\r\n\r\n  function setButtons(int x) public {\r\n    buttons = x;\r\n  }\r\n\r\n  function setDisplay(int x) public {\r\n    display = x;\r\n  }\r\n\r\n  // Solution Manufacturing\r\n    function setAluminumBars(int x) public {\r\n    aluminumBars = x;\r\n  }\r\n\r\n  function setAluminumSheets(int x) public {\r\n    aluminumSheets = x;\r\n  }\r\n\r\n  function setStainlessSteelSheets(int x) public {\r\n    stainlessSteelSheets = x;\r\n  }\r\n\r\n  function Springs(int x) public {\r\n    springs = x;\r\n  }\r\n\r\n  function setRubberBands(int x) public {\r\n    rubberBands = x;\r\n  }\r\n\r\n  function setRubberBumpers(int x) public {\r\n    rubberBumpers = x;\r\n  }\r\n\r\n  function setLightinLed(int x) public {\r\n    lightinLed = x;\r\n  }\r\n\r\n  function setDisplayPanel(int x) public {\r\n    displayPanel = x;\r\n  }\r\n\r\n  function setManufacturingButtons(int x) public {\r\n     manufacturingButtons = x;\r\n  }\r\n\r\n\r\n  // Quality, Security and Homologation  \r\n  function setDoorTest(int x) public {\r\n    doorTest = x;\r\n  }\r\n\r\n  function setCableTest(int x) public {\r\n    cableTest = x;\r\n  }\r\n\r\n  function setBraketest(int x) public {\r\n    braketest = x;\r\n  }\r\n\r\n  function setBatteryoperating(int x) public {\r\n    batteryoperating = x;\r\n  }\r\n\r\n  function setcertificateofconformity(int x) public {\r\n    certificateofconformity = x;\r\n  }\r\n}",
  "sourcePath": "C:/Users/Diana/Documents/projetos/week 12/drizzle-react-tutorial/contracts/MyStringStore.sol",
  "compiler": {
    "name": "solc",
    "version": "0.5.16+commit.9c3226ce.Emscripten.clang"
  },
  "schemaVersion": "3.3.4",
  "updatedAt": "2021-04-15T23:43:06.742Z",
  "networkType": "ethereum",
  "devdoc": {
    "methods": {}
  },
  "userdoc": {
    "methods": {}
  }
}