{
  "contractName": "MyStringStore",
  "abi": [
    {
      "constant": true,
      "inputs": [],
      "name": "aluminumBars",
      "outputs": [
        {
          "internalType": "int256",
          "name": "",
          "type": "int256"
        }
      ],
      "payable": false,
      "stateMutability": "view",
      "type": "function"
    },
    {
      "constant": true,
      "inputs": [],
      "name": "aluminumSheets",
      "outputs": [
        {
          "internalType": "int256",
          "name": "",
          "type": "int256"
        }
      ],
      "payable": false,
      "stateMutability": "view",
      "type": "function"
    },
    {
      "constant": true,
      "inputs": [],
      "name": "batteries",
      "outputs": [
        {
          "internalType": "int256",
          "name": "",
          "type": "int256"
        }
      ],
      "payable": false,
      "stateMutability": "view",
      "type": "function"
    },
    {
      "constant": true,
      "inputs": [],
      "name": "buttons",
      "outputs": [
        {
          "internalType": "int256",
          "name": "",
          "type": "int256"
        }
      ],
      "payable": false,
      "stateMutability": "view",
      "type": "function"
    },
    {
      "constant": true,
      "inputs": [],
      "name": "columns",
      "outputs": [
        {
          "internalType": "int256",
          "name": "",
          "type": "int256"
        }
      ],
      "payable": false,
      "stateMutability": "view",
      "type": "function"
    },
    {
      "constant": true,
      "inputs": [],
      "name": "controllers",
      "outputs": [
        {
          "internalType": "int256",
          "name": "",
          "type": "int256"
        }
      ],
      "payable": false,
      "stateMutability": "view",
      "type": "function"
    },
    {
      "constant": true,
      "inputs": [],
      "name": "display",
      "outputs": [
        {
          "internalType": "int256",
          "name": "",
          "type": "int256"
        }
      ],
      "payable": false,
      "stateMutability": "view",
      "type": "function"
    },
    {
      "constant": true,
      "inputs": [],
      "name": "displayPanel",
      "outputs": [
        {
          "internalType": "int256",
          "name": "",
          "type": "int256"
        }
      ],
      "payable": false,
      "stateMutability": "view",
      "type": "function"
    },
    {
      "constant": true,
      "inputs": [],
      "name": "doors",
      "outputs": [
        {
          "internalType": "int256",
          "name": "",
          "type": "int256"
        }
      ],
      "payable": false,
      "stateMutability": "view",
      "type": "function"
    },
    {
      "constant": true,
      "inputs": [],
      "name": "elevators",
      "outputs": [
        {
          "internalType": "int256",
          "name": "",
          "type": "int256"
        }
      ],
      "payable": false,
      "stateMutability": "view",
      "type": "function"
    },
    {
      "constant": true,
      "inputs": [],
      "name": "floors",
      "outputs": [
        {
          "internalType": "int256",
          "name": "",
          "type": "int256"
        }
      ],
      "payable": false,
      "stateMutability": "view",
      "type": "function"
    },
    {
      "constant": true,
      "inputs": [],
      "name": "lightinLed",
      "outputs": [
        {
          "internalType": "int256",
          "name": "",
          "type": "int256"
        }
      ],
      "payable": false,
      "stateMutability": "view",
      "type": "function"
    },
    {
      "constant": true,
      "inputs": [],
      "name": "manufacturingButtons",
      "outputs": [
        {
          "internalType": "int256",
          "name": "",
          "type": "int256"
        }
      ],
      "payable": false,
      "stateMutability": "view",
      "type": "function"
    },
    {
      "constant": true,
      "inputs": [],
      "name": "rubberBands",
      "outputs": [
        {
          "internalType": "int256",
          "name": "",
          "type": "int256"
        }
      ],
      "payable": false,
      "stateMutability": "view",
      "type": "function"
    },
    {
      "constant": true,
      "inputs": [],
      "name": "rubberBumpers",
      "outputs": [
        {
          "internalType": "int256",
          "name": "",
          "type": "int256"
        }
      ],
      "payable": false,
      "stateMutability": "view",
      "type": "function"
    },
    {
      "constant": true,
      "inputs": [],
      "name": "shafts",
      "outputs": [
        {
          "internalType": "int256",
          "name": "",
          "type": "int256"
        }
      ],
      "payable": false,
      "stateMutability": "view",
      "type": "function"
    },
    {
      "constant": true,
      "inputs": [],
      "name": "springs",
      "outputs": [
        {
          "internalType": "int256",
          "name": "",
          "type": "int256"
        }
      ],
      "payable": false,
      "stateMutability": "view",
      "type": "function"
    },
    {
      "constant": true,
      "inputs": [],
      "name": "stainlessSteelSheets",
      "outputs": [
        {
          "internalType": "int256",
          "name": "",
          "type": "int256"
        }
      ],
      "payable": false,
      "stateMutability": "view",
      "type": "function"
    },
    {
      "constant": false,
      "inputs": [
        {
          "internalType": "int256",
          "name": "x",
          "type": "int256"
        }
      ],
      "name": "setBatteries",
      "outputs": [],
      "payable": false,
      "stateMutability": "nonpayable",
      "type": "function"
    },
    {
      "constant": false,
      "inputs": [
        {
          "internalType": "int256",
          "name": "x",
          "type": "int256"
        }
      ],
      "name": "setColumns",
      "outputs": [],
      "payable": false,
      "stateMutability": "nonpayable",
      "type": "function"
    },
    {
      "constant": false,
      "inputs": [
        {
          "internalType": "int256",
          "name": "x",
          "type": "int256"
        }
      ],
      "name": "setElevators",
      "outputs": [],
      "payable": false,
      "stateMutability": "nonpayable",
      "type": "function"
    },
    {
      "constant": false,
      "inputs": [
        {
          "internalType": "int256",
          "name": "x",
          "type": "int256"
        }
      ],
      "name": "setFloors",
      "outputs": [],
      "payable": false,
      "stateMutability": "nonpayable",
      "type": "function"
    },
    {
      "constant": false,
      "inputs": [
        {
          "internalType": "int256",
          "name": "x",
          "type": "int256"
        }
      ],
      "name": "setControllers",
      "outputs": [],
      "payable": false,
      "stateMutability": "nonpayable",
      "type": "function"
    },
    {
      "constant": false,
      "inputs": [
        {
          "internalType": "int256",
          "name": "x",
          "type": "int256"
        }
      ],
      "name": "setShafts",
      "outputs": [],
      "payable": false,
      "stateMutability": "nonpayable",
      "type": "function"
    },
    {
      "constant": false,
      "inputs": [
        {
          "internalType": "int256",
          "name": "x",
          "type": "int256"
        }
      ],
      "name": "setDoors",
      "outputs": [],
      "payable": false,
      "stateMutability": "nonpayable",
      "type": "function"
    },
    {
      "constant": false,
      "inputs": [
        {
          "internalType": "int256",
          "name": "x",
          "type": "int256"
        }
      ],
      "name": "setButtons",
      "outputs": [],
      "payable": false,
      "stateMutability": "nonpayable",
      "type": "function"
    },
    {
      "constant": false,
      "inputs": [
        {
          "internalType": "int256",
          "name": "x",
          "type": "int256"
        }
      ],
      "name": "setDisplay",
      "outputs": [],
      "payable": false,
      "stateMutability": "nonpayable",
      "type": "function"
    },
    {
      "constant": false,
      "inputs": [
        {
          "internalType": "int256",
          "name": "x",
          "type": "int256"
        }
      ],
      "name": "setAluminumBars",
      "outputs": [],
      "payable": false,
      "stateMutability": "nonpayable",
      "type": "function"
    },
    {
      "constant": false,
      "inputs": [
        {
          "internalType": "int256",
          "name": "x",
          "type": "int256"
        }
      ],
      "name": "setAluminumSheets",
      "outputs": [],
      "payable": false,
      "stateMutability": "nonpayable",
      "type": "function"
    },
    {
      "constant": false,
      "inputs": [
        {
          "internalType": "int256",
          "name": "x",
          "type": "int256"
        }
      ],
      "name": "setStainlessSteelSheets",
      "outputs": [],
      "payable": false,
      "stateMutability": "nonpayable",
      "type": "function"
    },
    {
      "constant": false,
      "inputs": [
        {
          "internalType": "int256",
          "name": "x",
          "type": "int256"
        }
      ],
      "name": "Springs",
      "outputs": [],
      "payable": false,
      "stateMutability": "nonpayable",
      "type": "function"
    },
    {
      "constant": false,
      "inputs": [
        {
          "internalType": "int256",
          "name": "x",
          "type": "int256"
        }
      ],
      "name": "setRubberBands",
      "outputs": [],
      "payable": false,
      "stateMutability": "nonpayable",
      "type": "function"
    },
    {
      "constant": false,
      "inputs": [
        {
          "internalType": "int256",
          "name": "x",
          "type": "int256"
        }
      ],
      "name": "setRubberBumpers",
      "outputs": [],
      "payable": false,
      "stateMutability": "nonpayable",
      "type": "function"
    },
    {
      "constant": false,
      "inputs": [
        {
          "internalType": "int256",
          "name": "x",
          "type": "int256"
        }
      ],
      "name": "setLightinLed",
      "outputs": [],
      "payable": false,
      "stateMutability": "nonpayable",
      "type": "function"
    },
    {
      "constant": false,
      "inputs": [
        {
          "internalType": "int256",
          "name": "x",
          "type": "int256"
        }
      ],
      "name": "setDisplayPanel",
      "outputs": [],
      "payable": false,
      "stateMutability": "nonpayable",
      "type": "function"
    },
    {
      "constant": false,
      "inputs": [
        {
          "internalType": "int256",
          "name": "x",
          "type": "int256"
        }
      ],
      "name": "setManufacturingButtons",
      "outputs": [],
      "payable": false,
      "stateMutability": "nonpayable",
      "type": "function"
    }
  ],
  "bytecode": "0x6080604052601e6000556019600155600060025560006003556000600455600060055560006006556000600755600060085560006009556000600a556000600b556000600c556000600d556000600e556000600f556000601055600060115534801561006a57600080fd5b506108ce8061007a6000396000f3fe608060405234801561001057600080fd5b506004361061021c5760003560e01c806366dea4f711610125578063abd2adbb116100ad578063da6cd0961161007c578063da6cd096146106c3578063ed727937146106e1578063f41fed0e146106ff578063f55fc0991461071d578063f8e622e51461074b5761021c565b8063abd2adbb1461062b578063bec889e914610649578063cfdd8bc114610667578063d4a97eb5146106955761021c565b80638480da6e116100f45780638480da6e1461055557806392670bcf1461058357806398004875146105b15780639e051e4f146105df578063a686cf8f146105fd5761021c565b806366dea4f7146104cd57806373b0ca8b146104eb578063752f00a6146105195780637cc0c3a7146105375761021c565b80632c51a092116101a85780634958bdbd116101775780634958bdbd146104275780634a10781f1461044557806351e971031461047357806354b6689d146104915780635915b5d9146104af5761021c565b80632c51a0921461039f5780632dbbdf24146103bd57806335991911146103db57806346b368d1146103f95761021c565b80630c1b7c1e116101ef5780630c1b7c1e146102d957806316d3ed21146102f75780631a0db2ca146103255780631a5f89ca14610353578063223d9a84146103715761021c565b80630191a6121461022157806304a25efe1461024f578063058553981461027d57806308d76dd2146102ab575b600080fd5b61024d6004803603602081101561023757600080fd5b8101908080359060200190929190505050610779565b005b61027b6004803603602081101561026557600080fd5b8101908080359060200190929190505050610783565b005b6102a96004803603602081101561029357600080fd5b810190808035906020019092919050505061078d565b005b6102d7600480360360208110156102c157600080fd5b8101908080359060200190929190505050610797565b005b6102e16107a1565b6040518082815260200191505060405180910390f35b6103236004803603602081101561030d57600080fd5b81019080803590602001909291905050506107a7565b005b6103516004803603602081101561033b57600080fd5b81019080803590602001909291905050506107b1565b005b61035b6107bb565b6040518082815260200191505060405180910390f35b61039d6004803603602081101561038757600080fd5b81019080803590602001909291905050506107c1565b005b6103a76107cb565b6040518082815260200191505060405180910390f35b6103c56107d1565b6040518082815260200191505060405180910390f35b6103e36107d7565b6040518082815260200191505060405180910390f35b6104256004803603602081101561040f57600080fd5b81019080803590602001909291905050506107dd565b005b61042f6107e7565b6040518082815260200191505060405180910390f35b6104716004803603602081101561045b57600080fd5b81019080803590602001909291905050506107ed565b005b61047b6107f7565b6040518082815260200191505060405180910390f35b6104996107fd565b6040518082815260200191505060405180910390f35b6104b7610803565b6040518082815260200191505060405180910390f35b6104d5610809565b6040518082815260200191505060405180910390f35b6105176004803603602081101561050157600080fd5b810190808035906020019092919050505061080f565b005b610521610819565b6040518082815260200191505060405180910390f35b61053f61081f565b6040518082815260200191505060405180910390f35b6105816004803603602081101561056b57600080fd5b8101908080359060200190929190505050610825565b005b6105af6004803603602081101561059957600080fd5b810190808035906020019092919050505061082f565b005b6105dd600480360360208110156105c757600080fd5b8101908080359060200190929190505050610839565b005b6105e7610843565b6040518082815260200191505060405180910390f35b6106296004803603602081101561061357600080fd5b8101908080359060200190929190505050610849565b005b610633610853565b6040518082815260200191505060405180910390f35b610651610859565b6040518082815260200191505060405180910390f35b6106936004803603602081101561067d57600080fd5b810190808035906020019092919050505061085f565b005b6106c1600480360360208110156106ab57600080fd5b8101908080359060200190929190505050610869565b005b6106cb610873565b6040518082815260200191505060405180910390f35b6106e9610879565b6040518082815260200191505060405180910390f35b61070761087f565b6040518082815260200191505060405180910390f35b6107496004803603602081101561073357600080fd5b8101908080359060200190929190505050610885565b005b6107776004803603602081101561076157600080fd5b810190808035906020019092919050505061088f565b005b8060048190555050565b8060088190555050565b80600a8190555050565b8060098190555050565b60085481565b80600f8190555050565b8060108190555050565b60095481565b8060038190555050565b60105481565b60115481565b60065481565b80600c8190555050565b60025481565b8060018190555050565b60005481565b600f5481565b600b5481565b600e5481565b80600d8190555050565b60075481565b60045481565b8060118190555050565b80600e8190555050565b8060078190555050565b600c5481565b8060008190555050565b60015481565b60055481565b80600b8190555050565b8060028190555050565b600a5481565b600d5481565b60035481565b8060058190555050565b806006819055505056fea265627a7a72315820dab19b8dc6855d4d4048d405b45ddef5eeb734fbb6c9a9f80c44e4b92850f24664736f6c63430005100032",
  "source": "pragma solidity >=0.5.0;\r\n\r\ncontract MyStringStore {\r\n  int public batteries = 30;\r\n  int public columns = 25;\r\n  int public elevators = 0;\r\n  int public floors = 0;\r\n\r\n  int public controllers =0;\r\n  int public shafts =0;\r\n  int public doors =0;\r\n  int public buttons =0;\r\n  int public display =0;\r\n\r\n  int public aluminumBars = 0;\r\n  int public aluminumSheets = 0;\r\n  int public stainlessSteelSheets = 0;\r\n  int public springs = 0;\r\n  int public rubberBands =0;\r\n  int public rubberBumpers =0;\r\n  int public lightinLed =0;\r\n  int public displayPanel =0;\r\n  int public manufacturingButtons =0;\r\n\r\n  \r\n  function setBatteries(int x) public {\r\n    batteries = x;\r\n  }\r\n\r\n  function setColumns(int x) public {\r\n    columns = x;\r\n  }\r\n\r\n  function setElevators(int x) public {\r\n    elevators = x;\r\n  }\r\n\r\n  function setFloors(int x) public {\r\n    floors = x;\r\n  }\r\n\r\n  function setControllers(int x) public {\r\n    controllers = x;\r\n  }\r\n\r\n  function setShafts(int x) public {\r\n    shafts = x;\r\n  }\r\n\r\n  function setDoors(int x) public {\r\n    doors = x;\r\n  }\r\n\r\n  function setButtons(int x) public {\r\n    buttons = x;\r\n  }\r\n\r\n  function setDisplay(int x) public {\r\n    display = x;\r\n  }\r\n\r\n    function setAluminumBars(int x) public {\r\n    aluminumBars = x;\r\n  }\r\n\r\n  function setAluminumSheets(int x) public {\r\n    aluminumSheets = x;\r\n  }\r\n\r\n  function setStainlessSteelSheets(int x) public {\r\n    stainlessSteelSheets = x;\r\n  }\r\n\r\n  function Springs(int x) public {\r\n    springs = x;\r\n  }\r\n\r\n  function setRubberBands(int x) public {\r\n    rubberBands = x;\r\n  }\r\n\r\n  function setRubberBumpers(int x) public {\r\n    rubberBumpers = x;\r\n  }\r\n\r\n  function setLightinLed(int x) public {\r\n    lightinLed = x;\r\n  }\r\n\r\n  function setDisplayPanel(int x) public {\r\n    displayPanel = x;\r\n  }\r\n\r\n  function setManufacturingButtons(int x) public {\r\n     manufacturingButtons = x;\r\n  }\r\n\r\n}",
  "sourcePath": "C:/Users/Diana/Documents/projetos/week 12/drizzle-react-tutorial/contracts/MyStringStore.sol",
  "compiler": {
    "name": "solc",
    "version": "0.5.16+commit.9c3226ce.Emscripten.clang"
  },
  "schemaVersion": "3.3.4",
  "updatedAt": "2021-04-15T19:18:32.184Z",
  "networkType": "ethereum",
  "devdoc": {
    "methods": {}
  },
  "userdoc": {
    "methods": {}
  }
}